:100000000C94DF000C9407010C9407010C94070179
:100010000C9407010C9407010C9407010C94070140
:100020000C9407010C9407010C9407010C94080927
:100030000C9407010C9407010C9407010C94070120
:100040000C9447070C9407010C94B7070C94910784
:100050000C9407010C9407010C9407010C94070100
:100060000C94E9070C94070100407A10F35A00A0A1
:10007000724E18090010A5D4E80000E87648170071
:1000800000E40B54020000CA9A3B000000E1F505B1
:10009000000080969800000040420F000000A086FB
:1000A00001000000102700000000E803000000002D
:1000B0006400000000000A000000000001000000D1
:1000C00000002C76D888DC674F0823DFC1DFAE59EB
:1000D000E1B1B796E5E3E453C63AE651997696E87E
:1000E000E6C28426EB898C9B62ED407C6FFCEFBC02
:1000F0009C9F40F2BAA56FA5F490055A2AF75C932D
:100100006B6CF9676DC11BFCE0E40D47FEF520E662
:10011000B500D0ED902E0300943577050080841E45
:10012000080000204E0A000000C80C333333330FA0
:10013000986E12831141EF8D2114893BE65516CF3D
:10014000FEE6DB18D1844B381BF77C1D901DA4BB49
:10015000E424203284725E228100C9F124ECA1E5FE
:100160003D270000000023002600290000000000B9
:10017000240027002A0000000000250028002B0092
:10018000040404040404040402020202020203033D
:100190000303030301020408102040800102040845
:1001A00010200102040810200000000800020100D5
:1001B000000304070000000000000000090A1124E9
:1001C0001FBECFEFD8E0DEBFCDBF12E0A0E0B1E0B0
:1001D000ECE0FAE202C005900D92A230B107D9F727
:1001E00023E0A2E0B2E001C01D92A93AB207E1F714
:1001F00010E0CFEDD0E004C02197FE010E940C1367
:10020000CE3DD107C9F70E948D0A0C9404150C94B9
:1002100000008F929F92AF92BF92FF920F931F9315
:10022000CF93DF93F09096032BE02F1508F44CC08A
:100230002091980308E512E0021B110927FD139590
:10024000000F111F000F111F20919703C8E8D0E085
:10025000C21BD10927FDD395CC0FDD1FCC0FDD1FAD
:100260004E010D2E000CAA08BB089801012E000CAF
:10027000440B550B281939094A095B09DC010E9416
:100280008B1224EB30E040E050E00E946112820EBD
:10029000931EA41EB51E8C169D062CF0E801801638
:1002A00091060CF4E4012297CC0FDD1F2FB7F894D0
:1002B0008F2D90E0FC01EE0FFF1FE80FF91FEF58A4
:1002C000FC4FD283C1832FBFDF91CF911F910F913C
:1002D000FF90BF90AF909F908F90089590E0FC01A9
:1002E000E855FE4F2491FC01EC56FE4F3491FC0181
:1002F000E058FE4FE491EE23C9F0222339F0233079
:1003000001F1A8F4213019F1223029F1F0E0EE0FCB
:10031000FF1FEA58FE4FA591B4918FB7F894EC9166
:10032000611126C030953E233C938FBF089527303E
:10033000A9F02830C9F0243049F7809180008F7DE2
:1003400003C0809180008F7780938000DFCF84B5D9
:100350008F7784BDDBCF84B58F7DFBCF8091B000DC
:100360008F778093B000D2CF8091B0008F7DF9CF8E
:100370003E2BDACFCF93DF9390E0FC01EC56FE4F9B
:10038000249180589E4FFC0184918823D1F090E005
:10039000880F991FFC01E459FE4FA591B491FC010F
:1003A000EA58FE4FC591D49161110EC09FB7F894E1
:1003B0008C91E22FE0958E238C932881E223E883B1
:1003C0009FBFDF91CF9108958FB7F894EC91E22B06
:1003D000EC938FBFF6CF3FB7F8948091C402909111
:1003E000C502A091C602B091C70226B5A89B05C060
:1003F0002F3F19F00196A11DB11D3FBFBA2FA92FA4
:10040000982F8827BC01CD01620F711D811D911DA0
:1004100042E0660F771F881F991F4A95D1F708950C
:100420008F929F92AF92BF92CF92DF92EF92FF9204
:100430004B015C010E94EB016B017C010E94EB010E
:100440006C197D098E099F09683E734081059105ED
:10045000A8F321E0821A9108A108B10888EEC80E1D
:1004600083E0D81EE11CF11C81149104A104B104A5
:1004700029F7FF90EF90DF90CF90BF90AF909F90C3
:100480008F90089508950895AF92BF92CF92DF9212
:10049000EF92FF920F931F93CF93DF936C017B0139
:1004A0008B01040F151FEB015E01AE18BF08C017CA
:1004B000D10759F06991D601ED91FC910190F0813D
:1004C000E02DC6010995892B79F7C501DF91CF9100
:1004D0001F910F91FF90EF90DF90CF90BF90AF9062
:1004E0000895FC01538D448D252F30E0842F90E03A
:1004F000821B930B541710F0CF960895019708951F
:10050000FC01918D828D981761F0A28DAE0FBF2FE7
:10051000B11D5D968C91928D9F5F9F73928F90E03D
:1005200008958FEF9FEF0895FC01918D828D9817AC
:1005300031F0828DE80FF11D858D90E008958FEFE9
:100540009FEF0895FC01918D228D892F90E0805CB2
:100550009F4F821B91098F739927089588EC92E031
:100560000E94A20221E0892B09F420E0822F089545
:1005700080E090E0892B29F00E94AE0281110C945A
:1005800000000895FC01A48DA80FB92FB11DA35A36
:10059000BF4F2C91848D90E001968F739927848FA3
:1005A000A689B7892C93A089B1898C9183708064C6
:1005B0008C93938D848D981306C00288F389E02D67
:1005C00080818F7D80830895EF92FF920F931F9318
:1005D000CF93DF93EC0181E0888F9B8D8C8D9813F6
:1005E0001AC0E889F989808185FF15C09FB7F89402
:1005F000EE89FF896083E889F9898081837080644E
:1006000080839FBF81E090E0DF91CF911F910F9198
:10061000FF90EF900895F62E0B8D10E00F5F1F4FA7
:100620000F731127E02E8C8D8E110CC00FB607FCB6
:10063000FACFE889F989808185FFF5CFCE010E9444
:10064000C202F1CFEB8DEC0FFD2FF11DE35AFF4FEE
:10065000F0829FB7F8940B8FEA89FB8980818062D2
:10066000CFCFCF93DF93EC01888D8823B9F0AA898F
:10067000BB89E889F9898C9185FD03C0808186FD5D
:100680000DC00FB607FCF7CF8C9185FFF2CF8081AC
:1006900085FFEDCFCE010E94C202E9CFDF91CF915D
:1006A0000895089520914402260F3327331F2132E5
:1006B0003105ECF420918D02FC0190E080E02430C3
:1006C00069F082E00895A09144022191AC014C5D53
:1006D0005D4FA40FB52FB11D2C930196861798F38B
:1006E00080914402680F6093440280E0089581E0A5
:1006F000089510928D0281E080938C02109267021F
:1007000061E082E10E946E0161E083E10E946E017E
:10071000E9EBF0E080818E7F808380818D7F808314
:1007200088E48093B80085E48093BC000895CF935B
:10073000DF9391E0909323028823B9F0C091B80031
:10074000D091BA008091BC008A7B8093BC0060E0AD
:1007500082E10E946E0160E083E10E946E010E94CE
:100760007903D093BA00C093B800DF91CF91089578
:100770000895E091BC028091BB02E81730F4F0E0EC
:10078000ED5FFD4F808190E008958FEF9FEF08951A
:100790009091BC028091BB022FEF3FEF981748F475
:1007A000E92FF0E0ED5FFD4F208130E09F5F9093F7
:1007B000BC02C90108958091BB029091BC02891BC3
:1007C000990B0895CF92DF92EF92FF920F931F93B0
:1007D000CF93DF937C01CB018A01209193022223E6
:1007E00089F0EB016B01C40ED51ECC15DD0569F057
:1007F0006991D701ED91FC910190F081E02DC70145
:100800000995F3CF642F0E945203C801DF91CF9165
:100810001F910F91FF90EF90DF90CF900895CF93AD
:10082000DF931F92CDB7DEB7698320919302222315
:10083000F9F02091B902203258F021E030E0FC01BB
:100840003383228390E080E00F90DF91CF91089571
:100850008091BA02E82FF0E0EC56FD4F9981908329
:100860008F5F8093BA028093B90281E090E0ECCF71
:1008700061E0CE0101960E945203F7CFCF92DF9242
:10088000EF92FF920F931F93CF93DF93FC01C481EC
:1008900021E020939302C093B4021092BA02109206
:1008A000B9028385682B85E693E00E940F04D091FE
:1008B000B902D13208F092C00E94EB016B017C01B9
:1008C00080918D02811165C082E080938D0281E06C
:1008D00080938C028FEF80938B0210928A02D093C8
:1008E0008902A4E9B2E0E9E6F2E080E0D81385C02D
:1008F0001092680280916802CC0FC82BC0936802E6
:1009000080916702813009F07CC0109267020E94DA
:10091000EB016B017C01809168028093BB008091A8
:100920008F0290919002A0919102B0919202892B36
:100930008A2B8B2B99F00E94EB0100918F02109172
:10094000900220919102309192026C197D098E09DA
:100950009F090617170728073907E0F18091BC00A7
:1009600083FDD9CF85EC8093BC000E94EB016B0125
:100970007C0180918D02823009F445C080918B0208
:100980008F3F61F180918B02803241F180918B0227
:1009900025C080918F0290919002A0919102B09118
:1009A0009202892B8A2B8B2B09F48ACF0E94EB01B0
:1009B00000918F0210919002209191023091920249
:1009C0006C197D098E099F09061717072807390733
:1009D00008F076CF80918E020E9497031092BA029F
:1009E0001092B90210929302DF91CF911F910F9153
:1009F000FF90EF90DF90CF9008959D9191938F5F3E
:100A000075CF85EEB0CF80918F0290919002A0912A
:100A10009102B0919202892B8A2B8B2B09F4A9CFDA
:100A20000E94EB0100918F0210919002209191029F
:100A3000309192026C197D098E099F0906171707DC
:100A40002807390708F095CFC5CF90E080E00895DA
:100A5000FB0101900020E9F73197AF01461B570BCE
:100A6000DC01ED91FC910280F381E02D0994BC0141
:100A700089E993E00C942805CF93DF93FC0144812E
:100A800055816081718188EC92E00E944402EC0102
:100A900060E471E088EC92E00E9428058C0F9D1FB5
:100AA000DF91CF9108950F931F93CF938C01C62FA1
:100AB0000E943E046C2F6460C8010E943E046C2FAB
:100AC0006B7FC8010E943E0483EC90E00197F1F730
:100AD000CF911F910F9108950F931F93CF93DF93A1
:100AE0008C01D62FC42F607F642B0E94530580E1B8
:100AF000D89FB00111246C2BC801DF91CF911F91B9
:100B00000F910C945305CF93DF93CDB7DEB72897A1
:100B10000FB6F894DEBF0FBECDBF98E0E8E0F1E07D
:100B2000DE01119601900D929A95E1F79091A10343
:100B3000981708F48FEF90E0880F991F21E030E0BC
:100B40002C0F3D1F820F931FFC016081606840E005
:100B500089E993E028960FB6F894DEBF0FBECDBFAB
:100B6000DF91CF910C946C0541E00E946C0581E00F
:100B700090E008950F931F93CF93DF93EC0188814A
:100B80009981009759F02A813B812617370730F069
:100B900081E0DF91CF911F910F9108958B016F5FDD
:100BA0007F4F0E943714009759F0998388831B83E5
:100BB0000A832C813D81232B59F7FC011082E8CF59
:100BC00080E0E7CFCF93DF93EC0188819981009794
:100BD00011F00E94AE13198218821D821C821B82A2
:100BE0001A82DF91CF9108950F931F93CF93DF93D4
:100BF000EC010C811D810E5F1F4FB8010E94BA05E8
:100C0000882391F0288139818C819D8163E471E092
:100C1000820F931F0E94FD141D830C83CE01DF9170
:100C2000CF911F910F910895CE010E94E205F6CF5A
:100C3000EF92FF920F931F93CF93DF93EC017B0111
:100C4000198218821B821A821D821C82FB0101906C
:100C50000020E9F731978F01061B170BB8010E949E
:100C6000BA05811109C0CE01DF91CF911F910F917B
:100C7000FF90EF900C94E2051D830C83B7018881EF
:100C80009981DF91CF911F910F91FF90EF900C947C
:100C9000FD14CF92DF92EF92FF920F931F93CF93A9
:100CA000DF93CDB7DEB7A1970FB6F894DEBF0FBEC6
:100CB000CDBF7C01CB01BA01F701118210821382F2
:100CC0001282158214828E010F5F1F4F22E044E0D2
:100CD0000E94E80E6C01009771F0FC010190002069
:100CE000E9F731978F01081B190BB801C7010E9462
:100CF000BA05811112C0C7010E94E205A1960FB684
:100D0000F894DEBF0FBECDBFDF91CF911F910F9141
:100D1000FF90EF90DF90CF900895F7011583048343
:100D2000B601808191810E94FD14E8CFEF92FF927D
:100D30000F931F93CF93DF93EC01FB01E080F180D1
:100D4000E114F10411F10481158101151105A9F0D7
:100D50008C819D81080F191FB801CE010E94BA0530
:100D6000882399F0288139818C819D81B701820F78
:100D7000931F0E94FD141D830C83CE01DF91CF9140
:100D80001F910F91FF90EF900895CE010E94E20510
:100D9000F4CFFC0180819181009711F00C94AE1387
:100DA000089585ED8093BC0080918F029091900210
:100DB000A0919102B09192020796A11DB11D23E06E
:100DC000B695A795979587952A95D1F72091BC0060
:100DD00024FD03C010928D02089540918F0250911E
:100DE00090026091910270919202452B462B472B05
:100DF00069F30097A105B10541F02AE22A95F1F7C0
:100E000000C00197A109B109E1CF80918E020C9435
:100E100097030F931F93CF93DF93182FEB0160E09D
:100E20000E946E0183E090E00197F1F761E0812F6D
:100E30000E946E0183E290E00197F1F760E0812F5C
:100E40000E946E01FE01EC56FE4F6491FE01E058D7
:100E5000FE4FE491F0E0EE0FFF1FEE59FE4F85913B
:100E6000949100E412E42FE030E0462F0E94C40980
:100E7000611571058105910529F06F5F7F4F8F4FD7
:100E80009F4F9F70DF91CF911F910F9108951F92F7
:100E90000F920FB60F9211242F933F938F939F932E
:100EA000AF93BF938091C0029091C102A091C20202
:100EB000B091C3023091BF0223E0230F2D3758F5C4
:100EC0000196A11DB11D2093BF028093C002909393
:100ED000C102A093C202B093C3028091C402909158
:100EE000C502A091C602B091C7020196A11DB11D15
:100EF0008093C4029093C502A093C602B093C70228
:100F0000BF91AF919F918F913F912F910F900FBE05
:100F10000F901F90189526E8230F0296A11DB11D72
:100F2000D2CF1F920F920FB60F9211242F933F939F
:100F30004F935F936F937F938F939F93AF93BF93E1
:100F4000EF93FF9388EC92E00E94C202FF91EF9131
:100F5000BF91AF919F918F917F916F915F914F91D1
:100F60003F912F910F900FBE0F901F9018951F92D9
:100F70000F920FB60F9211242F938F939F93EF939D
:100F8000FF93E091D802F091D9028081E091DE02D6
:100F9000F091DF0282FD1BC090818091E1028F5FA2
:100FA0008F732091E202821741F0E091E102F0E0BC
:100FB000E853FD4F958F8093E102FF91EF919F9150
:100FC0008F912F910F900FBE0F901F9018958081D9
:100FD000F4CF1F920F920FB60F9211242F933F93CD
:100FE0004F935F936F937F938F939F93AF93BF9331
:100FF000EF93FF938091B900887F803609F44AC04F
:10100000F0F5883209F4A7C018F5803109F49BC0C7
:10101000B8F4882309F4F9C0883009F494C0FF912A
:10102000EF91BF91AF919F918F917F916F915F9160
:101030004F913F912F910F900FBE0F901F901895D9
:10104000883109F488C0803251F780938B0214C034
:10105000803409F49DC040F48033B9F38833F9F645
:1010600080938B0285ECB0C0803509F485C088354B
:1010700009F496C0883499F60E94D106D0CF8839F9
:1010800009F48CC038F5883729F050F4883611F00F
:10109000803729F683E080938D021092660257C054
:1010A000883809F47BC0803919F0803809F0B7CF4F
:1010B00080916602803208F071C0E091660281E0A2
:1010C0008E0F809366028091BB00F0E0EA5BFD4FDB
:1010D00080833DC0803B39F0E0F4803A09F479C068
:1010E000883A09F09CCF84E080938D0210924502EB
:1010F00010924402E091B702F091B80209958091F4
:10110000440281110FC081E08093440210922402B6
:1011100009C0803C09F4A6CF883C09F4A3CF883BE2
:1011200009F07DCFE091450281E08E0F809345026A
:10113000F0E0EC5DFD4F80818093BB009091450213
:101140008091440229C0809168028093BB0085ECA5
:101150008093BC0064CF90918A0280918902981795
:1011600058F5E0918A0281E08E0F80938A02F0E0C8
:10117000E759FD4F8081E9CFE0918A0281E08E0F2F
:1011800080938A028091BB00F0E0E759FD4F808395
:1011900090918A02809189029817C8F285E8D8CF89
:1011A000E0918A0281E08E0F80938A028091BB00D9
:1011B000F0E0E759FD4F808380918C0281115CCF74
:1011C00081E08093670284EA8093BC0010928D02D4
:1011D00026CF85EC8093BC0010928D028091660230
:1011E000803230F4E0916602F0E0EA5BFD4F10825D
:1011F0006091660270E0E091B502F091B60286E47B
:1012000092E00995109266020ACF10928B0234CFB9
:101210001F920F920FB60F9211242F933F934F936B
:101220005F936F937F938F939F93AF93BF93CF936E
:10123000DF93EF93FF9380910202C0919503D0E07A
:1012400087FF24C0109285001092840080910202D2
:101250008F5F8093020280910202082E000C990B8E
:101260008C179D0724F4809102028C30C4F1809188
:10127000840090918500049680349C4908F47AC0DB
:101280008091840090918500049676C0809102023E
:10129000082E000C990B8C179D07C4F6E0910202F2
:1012A0008E2FEE0F990BFC01EE0FFF1FE80FF91FB9
:1012B000EF58FC4F808186FFC9CFE09102028E2F4C
:1012C000EE0F990BFC01EE0FFF1FE80FF91FEF580F
:1012D000FC4F808160E08F730E946E01B7CF209138
:1012E000840030918500E09102028E2FEE0F990B61
:1012F000FC01EE0FFF1FE80FF91FEF58FC4F818133
:101300009281820F931F9093890080938800E091CF
:1013100002028E2FEE0F990BFC01EE0FFF1FE80F5C
:10132000F91FEF58FC4F808186FF11C0E091020247
:101330008E2FEE0F990BFC01EE0FFF1FE80FF91F28
:10134000EF58FC4F808161E08F730E946E01FF9126
:10135000EF91DF91CF91BF91AF919F918F917F914D
:101360006F915F914F913F912F910F900FBE0F9012
:101370001F90189580E49CE99093890080938800E1
:101380008FEF80930202E3CFCF92DF92EF92FF9232
:101390000F931F93E82FF92F05C001501109210960
:1013A000310961F1908196239417B9F305C001507A
:1013B00011092109310911F1908196239413F7CF76
:1013C000C12CD12CE12CF12C0AC08FEFC81AD80AFD
:1013D000E80AF80A0C151D052E053F0579F08081F5
:1013E0008623841791F36C2D7D2D8E2D9F2D1F91BB
:1013F0000F91FF90EF90DF90CF90089560E070E044
:1014000080E090E01F910F91FF90EF90DF90CF90E0
:1014100008951092CB021092CA0288EE93E0A0E0E9
:10142000B0E08093CC029093CD02A093CE02B09313
:10143000CF0224E131E03093C9022093C80225ECA9
:1014400030E03093D5022093D40224EC30E0309386
:10145000D7022093D60220EC30E03093D9022093BB
:10146000D80221EC30E03093DB022093DA0222EC48
:1014700030E03093DD022093DC0226EC30E0309344
:10148000DF022093DE021092E1021092E20210923B
:10149000E3021092E40210926803109267038093B3
:1014A000690390936A03A0936B03B0936C0386E285
:1014B00091E0909366038093650310929C031092D1
:1014C0009B0388E391E090939A038093990387E2CA
:1014D00080939D0380E18093A20382E08093A30325
:1014E0001092A403809195038C3098F491E0980FAA
:1014F000909395038093960390E0FC01EE0FFF1FFD
:10150000E80FF91FEF58FC4F88EB9BE09283818333
:1015100008958FEF809396030895CF93DF93CDB70F
:10152000DEB7AF970FB6F894DEBF0FBECDBF78948D
:1015300084B5826084BD84B5816084BD85B58260D8
:1015400085BD85B5816085BD80916E008160809389
:101550006E001092810080918100826080938100F2
:101560008091810081608093810080918000816002
:10157000809380008091B10084608093B10080915D
:10158000B00081608093B00080917A008460809385
:101590007A0080917A00826080937A0080917A004C
:1015A000816080937A0080917A00806880937A00CD
:1015B0001092C10061E082E00E94BA0161E084E023
:1015C0000E94BA0161E086E00E94BA0161E08AE00F
:1015D0000E94BA0161E08CE00E94BA0160E083E001
:1015E0000E94BA0160E085E00E94BA0160E087E0F5
:1015F0000E94BA0160E08BE00E94BA0160E08DE0D9
:101600000E94BA01E091D802F091D90282E0808371
:10161000E091D402F091D5021082E091D602F091CF
:10162000D7028FEC80831092E002E091DC02F0910F
:10163000DD0286E08083E091DA02F091DB028081B6
:1016400080618083E091DA02F091DB028081886022
:101650008083E091DA02F091DB02808180688083F0
:10166000E091DA02F091DB0280818F7D808310921D
:10167000BC021092BB021092BA021092B9020E94F0
:10168000790382E492E09093B8028093B70283E4F6
:1016900092E09093B6028093B50210929E038091DF
:1016A000A303823018F098E090939E038093A103E7
:1016B00062E370E080E090E00E9410026091A40379
:1016C00089E993E00E943E0468EE73E080E090E0D8
:1016D0000E94100260E389E993E00E9453050BE445
:1016E00016E4C8010197F1F760E389E993E00E94ED
:1016F0005305C8010197F1F760E389E993E00E947F
:10170000530583E592E00197F1F760E289E993E000
:101710000E94530560919E03606240E089E993E076
:101720000E946C0584E080939F0340E06CE089E9AF
:1017300093E00E946C0540E061E089E993E00E943B
:101740006C050BE31FE1C8010197F1F782E080937C
:10175000A00340E066E089E993E00E946C0540E068
:1017600062E089E993E00E946C05C8010197F1F7F6
:1017700088E08093A40360E089E993E00E943E043E
:1017800080E00E948305809196038C3008F051C060
:1017900061E089E00E94BA0180919603282F30E031
:1017A000F901EE0FFF1FE20FF31FEF58FC4F90817E
:1017B000907C9960908310929703109298032CE08C
:1017C000622F0E940013829FB001112430E020E0BC
:1017D000AB01420F531FFA01EE0FFF1FE40FF51F7D
:1017E000EF58FC4F908196FD16C02F5F3F4F2C3075
:1017F000310571F781110FC01092800082E0809353
:1018000081001092850010928400B19A80916F003F
:10181000826080936F00E09196038E2F90E0FC0130
:10182000EE0FFF1FE80FF91FEF58FC4F8081806417
:10183000808390E080E00E94090180E0282E80E013
:10184000382E63E070E082E090E00E9409070E9479
:1018500044112EEE35E24DE85CE30E94A3112B010A
:101860003C0165E070E084E090E00E9409070E947E
:1018700044112EEE35E24DE85CE30E94A31168A707
:1018800079A78AA79BA767E070E086E090E00E94B6
:1018900009070E9444112EEE35E24DE85CE30E94F8
:1018A000A3116CA77DA78EA79FA76BE070E08AE0CD
:1018B00090E00E9409070E9444112EEE35E24DE8A7
:1018C0005CE30E94A3116B017C016DE070E08CE091
:1018D00090E00E9409070E9444112EEE35E24DE887
:1018E0005CE30E94A3114B015C01B301A201CE0194
:1018F00001960E94490666E471E0CE0182960E943C
:101900001806BE016F5F7F4FCE0182960E94960639
:101910000E94F4050E943C05CE0182960E94C906F1
:10192000CE0101960E94C90648A559A56AA57BA5C6
:10193000CE0101960E9449066CE471E0CE018296C8
:101940000E941806BE016F5F7F4FCE0182960E94F3
:1019500096060E94F4050E943C05CE0182960E94E4
:10196000C906CE0101960E94C9064CA55DA56EA5CB
:101970007FA5CE0101960E94490662E571E0CE0185
:1019800082960E941806BE016F5F7F4FCE0182963D
:101990000E9496060E94F4050E943C05CE018296A4
:1019A0000E94C906CE0101960E94C906B701A60190
:1019B000CE0101960E94490668E571E0CE0182964B
:1019C0000E941806BE016F5F7F4FCE0182960E9473
:1019D00096060E94F4050E943C05CE0182960E9464
:1019E000C906CE0101960E94C906B501A401CE0127
:1019F00001960E9449066EE571E0CE0182960E9432
:101A00001806BE016F5F7F4FCE0182960E94960638
:101A10000E94F4050E943C05CE0182960E94C906F0
:101A2000CE0101960E94C9068091BD029091BE022E
:101A3000009709F0B2C020E030E048EC52E4C70162
:101A4000B6010E943D1187FF20C020E030E048EC45
:101A500052E4C501B4010E94FB1287FD16C08091BB
:101A6000000190910101181619067CF401979093DA
:101A70000101809300018FEF9FEF9093BE0280934E
:101A8000BD028AE590E00E94090120E030E048ECC8
:101A900052E4C701B6010E94FB1287FD20C020E07E
:101AA00030E048EC52E4C501B4010E943D1187FFCB
:101AB00016C08091000190910101833091057CF462
:101AC00001969093010180930001E1E0F0E0F09332
:101AD000BE02E093BD028AE590E00E94090180E029
:101AE0000E9483058091000190910101892B09F0EA
:101AF000ABC084E691E00E94370511E020E030E0C1
:101B000048EC52E4C301B2010E94FB1218160CF01B
:101B100010E0FF24F39420E030E048EC52E468A5A4
:101B200079A58AA59BA50E94FB1218160CF0F12C32
:101B3000D12EDF2001E020E030E048EC52E46CA53B
:101B40007DA58EA59FA50E94FB1218160CF000E043
:101B5000DD2009F4CBC0002309F4C8C081E00E9455
:101B6000830581E891E00E94370564EF71E080E031
:101B700090E00E94100264E670E080E090E00E9435
:101B800010022114310409F45CCE0E94AE028823B5
:101B900009F457CE0E94000050CE8F3F9807E9F419
:101BA00020E030E048EC52E4C701B6010E94FB128D
:101BB00087FD95CF20E030E048EC52E4C501B40148
:101BC0000E943D1187FF8BCF8EEF9FEF9093BE0257
:101BD0008093BD0290E080E080CF81309105B9F420
:101BE00020E030E048EC52E4C501B4010E94FB1251
:101BF00087FD75CF20E030E048EC52E4C701B60124
:101C00000E943D1187FF6BCF82E090E0DFCF8E3FD7
:101C1000EFEF9E0779F420E030E048EC52E4C50194
:101C2000B4010E94FB1287FD5ACF1092BE0210929F
:101C3000BD0255CF029709F052CF20E030E048ECCA
:101C400052E4C701B601EDCF83E791E00E9437056A
:101C5000C0900001D09001010D2C000CEE08FF088F
:101C6000F7FE2CC041E06DE289E993E00E946C052B
:101C700022273327A9012C193D094E095F0919A212
:101C8000CE0181967C01CA01B9012AE030E040E032
:101C900050E00E94CA12605DF70162937F01211536
:101CA00031054105510579F7E114F10409F425CF17
:101CB000B70189E993E00E9428051FCFA70196018B
:101CC00019A2CE0181967C01CA01B9012AE030E057
:101CD00040E050E00E94CA12605DF70162937F010C
:101CE000211531054105510579F7DECFE12EE022BE
:101CF000102BF12211F4EE2081F081E00E94830587
:101D000081E991E0D11006C081EA91E0E11002C0C2
:101D100081EB91E00E9437052ECF20E030E048ECC7
:101D200052E4C301B2010E943D11182F111F112767
:101D3000111F20E030E048EC52E468A579A58AA59F
:101D40009BA50E943D11082F001F0027001F20E0C7
:101D500030E048EC52E46CA57DA58EA59FA50E94BD
:101D60003D11881F8827881F912F902341F08823D9
:101D700031F081E00E94830581EC91E0CBCF912F7F
:101D8000982B092319F4182309F4F5CE81E00E9459
:101D9000830520E030E048EC52E4C301B2010E9428
:101DA000FB1218161CF481ED91E0B4CF20E030E076
:101DB00048EC52E468A579A58AA59BA50E94FB1270
:101DC00018161CF481EE91E0A5CF81EF91E0A2CF2F
:101DD000EF920F931F93CF93DF93E80134E047FD19
:101DE00034E1042E000C550B57FF03C0519541956B
:101DF0005109E32E022F242FAE010E94060FCE01BF
:101E0000DF91CF911F910F91EF900895A9E0B0E07D
:101E1000ECE0FFE00C9499126A01F22EB02E102F24
:101E2000FBE3AF2EA01608F41BE31F5F012F27E092
:101E3000AE014F5F5F4F0E946510BC018981982FF2
:101E40009970913009F43FC09BE2E1FC04C09E2DE3
:101E50009170E0FC3AC05E2D5071E82FE87083FF6E
:101E600046C084E0911101C083E0EF2DE81B8F157F
:101E700008F0E0E0D6018E2F20E2552351F199239E
:101E800029F0D6019C93C60101966C0196012D5F45
:101E90003F4FE2FE24C08EE4D6018C9391E411966C
:101EA0009C93119712968C93D9018E2F90E28111F9
:101EB0001BC0E20FF32FF11D10828EEF9FEF2996CA
:101EC000ECE00C94B5129DE2C6CF90E2C4CF2D9306
:101ED00081508111FCCFCE0ED11CE0E0D0CF8EE638
:101EE000D6018C9391E6DBCF9D938150E0CF482FB4
:101EF000447082FF3DC084E0911101C083E08F15E2
:101F000010F4EF2DE81BD6018E2F20E2552309F1A6
:101F1000992329F0D6019C93C60101966C01960184
:101F20002D5F3F4FE2FE1BC089E4D6018C938EE407
:101F300011968C93119786E412968C93D9018E2F6B
:101F400090E2882309F4B5CF9D938150FACF2D9369
:101F500081508111FCCFCE0ED11CE0E0D9CF89E6B3
:101F6000D6018C938EE611968C93119786E6E4CF7A
:101F70009B0177FF02C030E020E0A1E0B0E09111CA
:101F800002C0B0E0A0E0F9013196AE0FBF1F8B2C6C
:101F9000912CBB2009F461C05401EFEFAE1ABE0AC8
:101FA000AA0DBB1DFA161B0619F014F04F2D4A1B83
:101FB000511188C0E3FC59C07601A42FB0E2A111F1
:101FC0004FC0C40ED11C992309F45BC040E0D60178
:101FD0001196F60190836D01552309F448C0012F35
:101FE000060F9A81582F507184FF03C0913309F472
:101FF000015010160CF047C0093008F008E0EEE27E
:10200000FE2E5B01A01AB10885019194819491087C
:102010002F3F320729F4D601FC92F60131966F0169
:102020006217730794F1021713077CF5DB01A21BFB
:10203000B30BAA24A394B12CAC0EBD1EAA0DBB1DDC
:1020400011968C9121503109D60111962815390528
:10205000F4F0F60180836D01DBCFB12CA12CA0CF71
:10206000F701B1937F01A150AACF9111B0CFD60152
:10207000942F50E302C05D9391509111FCCFC40E98
:10208000D11C40E0ACCF01E0BACF80E3DBCF6217D8
:10209000730731F4963388F4953311F4552369F0BE
:1020A000F6018083FD01842F90E2811108C0A40F06
:1020B000B11D1C9290E080E002CF81E3F1CF9193BB
:1020C0008150F3CF911183CF8ACF283008F027E0D9
:1020D0003327DA01990F311D87FD91600096610564
:1020E000710539F432602E5F3D9330E32A95E1F7B4
:1020F00008959F3F30F080387105610509F03C5F1D
:102100003C5F3D93913008F08068911DDF93CF9341
:102110001F930F93FF92EF92192F987F9695E92FB7
:1021200096959695E90FFF27EE53FF4F9927332792
:10213000EE24FF24A701E70105900894079428F4F2
:10214000360FE71EF81E491F511D660F771F881FA7
:10215000991F0694A1F70590079428F4E70EF81E3E
:10216000491F561FC11D770F881F991F661F0694B0
:10217000A1F70590079428F4F80E491F561FC71FB2
:10218000D11D880F991F661F771F0694A1F7059030
:10219000079420F4490F561FC71FD81F990F661FB9
:1021A000771F881F0694A9F784911095177041F046
:1021B000D695C79557954795F794E7941A95C1F723
:1021C000E8E6F0E068941590159135916591959148
:1021D00005907FE27395E118F10A430B560BC90B8A
:1021E000D009C0F7E10CF11E431F561FC91FD01DB7
:1021F0007EF4703311F48A95E6CFE894015030F004
:10220000080F0AF40027021708F4202F2395022F45
:102210007A3328F079E37D932A95E9F710C07D930E
:102220002A9589F60694979567953795179517948B
:10223000E118F10A430B560BC90BD00998F023950E
:102240007E9173957A3308F070E37C932013B8F78E
:102250007E9170617D9330F0839571E37D9370E39F
:102260002A95E1F71124EF90FF900F911F91CF91E4
:10227000DF91992787FD909508950E947F1108F4BA
:1022800081E00895E89409C097FB3EF4909580950D
:10229000709561957F4F8F4F9F4F9923A9F0F92F2C
:1022A00096E9BB279395F695879577956795B795AA
:1022B000F111F8CFFAF4BB0F11F460FF1BC06F5F90
:1022C0007F4F8F4F9F4F16C0882311F096E911C0A2
:1022D000772321F09EE8872F762F05C0662371F0C3
:1022E00096E8862F70E060E02AF09A95660F771FD7
:1022F000881FDAF7880F9695879597F90895990FB3
:102300000008550FAA0BE0E8FEEF16161706E807BF
:10231000F907C0F012161306E407F50798F0621BE0
:10232000730B840B950B39F40A2661F0232B242BB5
:10233000252B21F408950A2609F4A140A6958FEFD4
:10234000811D811D08950E94B6110C9427120E94D0
:10235000191238F00E94201220F0952311F00C94ED
:1023600010120C94161211240C945B120E94381255
:1023700070F3959FC1F3950F50E0551F629FF001D8
:10238000729FBB27F00DB11D639FAA27F00DB11DF1
:10239000AA1F649F6627B00DA11D661F829F22277A
:1023A000B00DA11D621F739FB00DA11D621F839F01
:1023B000A00D611D221F749F3327A00D611D231FD7
:1023C000849F600D211D822F762F6A2F11249F5725
:1023D00050409AF0F1F088234AF0EE0FFF1FBB1F28
:1023E000661F771F881F91505040A9F79E3F5105E7
:1023F00080F00C9410120C945B125F3FE4F3983E53
:10240000D4F3869577956795B795F795E7959F5F90
:10241000C1F7FE2B880F911D9695879597F9089522
:1024200097F99F6780E870E060E008959FEF80EC87
:10243000089500240A94161617061806090608952A
:1024400000240A9412161306140605060895092E90
:102450000394000C11F4882352F0BB0F40F4BF2BFF
:1024600011F460FF04C06F5F7F4F8F4F9F4F08953F
:1024700057FD9058440F551F59F05F3F71F0479535
:10248000880F97FB991F61F09F3F79F0879508951A
:10249000121613061406551FF2CF4695F1DF08C039
:1024A000161617061806991FF1CF86957105610556
:1024B00008940895E894BB2766277727CB0197F9FE
:1024C0000895052E97FB1EF400940E94781257FD84
:1024D00007D00E94CA1207FC03D04EF40C94781265
:1024E00050954095309521953F4F4F4F5F4F089540
:1024F00090958095709561957F4F8F4F9F4F089570
:102500000E94EC12A59F900DB49F900DA49F800D8A
:10251000911D11240895B7FF0C9480120E9480121F
:10252000821B930B08952F923F924F925F926F926E
:102530007F928F929F92AF92BF92CF92DF92EF9253
:10254000FF920F931F93CF93DF93CDB7DEB7CA1BD4
:10255000DB0B0FB6F894DEBF0FBECDBF09942A88FF
:10256000398848885F846E847D848C849B84AA84A7
:10257000B984C884DF80EE80FD800C811B81AA8134
:10258000B981CE0FD11D0FB6F894DEBF0FBECDBFFF
:10259000ED010895A1E21A2EAA1BBB1BFD010DC07F
:1025A000AA1FBB1FEE1FFF1FA217B307E407F50703
:1025B00020F0A21BB30BE40BF50B661F771F881FDF
:1025C000991F1A9469F760957095809590959B0175
:1025D000AC01BD01CF010895A29FB001B39FC0011E
:1025E000A39F700D811D1124911DB29F700D811D3F
:1025F0001124911D08950E947F1108F48FEF089512
:10260000991B79E004C0991F961708F0961B881F44
:102610007A95C9F780950895EE0FFF1F0590F49104
:10262000E02D09940F931F93CF93DF938230910590
:1026300010F482E090E0E091A703F091A80330E06D
:1026400020E0B0E0A0E0309799F42115310509F4BD
:102650004AC0281B390B24303105D8F58A819B816B
:102660006115710589F1FB0193838283FE0111C01D
:10267000408151810281138148175907E0F04817C2
:10268000590799F4109761F012960C9312971396CC
:102690001C933296CF01DF91CF911F910F91089536
:1026A0000093A7031093A803F4CF2115310551F02F
:1026B0004217530738F0A901DB019A01BD01DF0180
:1026C000F801C1CFEF01F9CF9093A8038093A7033E
:1026D000CDCFFE01E20FF31F819391932250310978
:1026E00039832883D7CF2091A5033091A603232BCC
:1026F00041F420910401309105013093A603209309
:10270000A50320910201309103012115310541F407
:102710002DB73EB74091060150910701241B350BA0
:10272000E091A503F091A603E217F307A0F42E1B96
:102730003F0B2817390778F0AC014E5F5F4F241725
:10274000350748F04E0F5F1F5093A6034093A50333
:10275000819391939FCFF0E0E0E09CCFCF93DF9304
:102760000097E9F0FC01329713821282A091A7032F
:10277000B091A803ED0130E020E01097A1F4208192
:102780003181820F931F2091A5033091A603281752
:10279000390709F061C0F093A603E093A503DF9128
:1027A000CF910895EA01CE17DF07E8F54A815B81F2
:1027B0009E0141155105B1F7E901FB83EA83499177
:1027C0005991C40FD51FEC17FD0761F480819181E9
:1027D0000296840F951FE9019983888382819381F2
:1027E0009B838A83F0E0E0E012968D919C91139791
:1027F0000097B9F52D913C911197CD010296820F6A
:10280000931F2091A5033091A6032817390739F6A5
:10281000309751F51092A8031092A703B093A60326
:10282000A093A503BCCFD383C28340815181840F81
:10283000951FC817D90761F44E5F5F4F8881998152
:10284000480F591F518340838A819B8193838283E0
:102850002115310509F0B0CFF093A803E093A70349
:102860009ECFFD01DC01C0CF13821282D7CFB0E032
:10287000A0E0EDE3F4E10C9495128C01009751F483
:10288000CB010E9412138C01C801CDB7DEB7E0E185
:102890000C94B112FC01E60FF71F9C012250310984
:1028A000E217F30708F49DC0D901CD91DC9111978F
:1028B000C617D70798F0C530D10530F3CE0104977D
:1028C0008617970708F3C61BD70B2297C193D1939E
:1028D0006D937C93CF010E94AE13D6CF5B01AC1AEF
:1028E000BD0A4C018C0E9D1EA091A703B091A803B8
:1028F000512C412CF12CE12C109731F58091A5033E
:102900009091A6038815990509F05CC046165706F4
:1029100008F058C08091020190910301009741F4A2
:102920008DB79EB74091060150910701841B950B0E
:10293000E817F90708F055C0F093A603E093A50344
:10294000F90171836083A0CF8D919C9111971296AC
:102950006C90129713967C901397A815B90559F5AA
:102960006C0142E0C40ED11CCA14DB0420F1AC019E
:102970004A195B09DA011296159780F06282738218
:1029800051834083D9016D937C93E114F10471F07C
:10299000D7011396FC93EE93129776CF22968C0F65
:1029A0009D1FF90191838083F301EFCFF093A8037A
:1029B000E093A70369CF4816590608F42C017D015E
:1029C000D3019ACFCB010E9412137C01009749F0EA
:1029D000AE01B8010E94F414C8010E94AE13870131
:1029E00053CF10E000E050CFFB01DC0102C00190AA
:1029F0000D9241505040D8F70895FB01DC01019041
:0C2A00000D920020E1F70895F894FFCF3C
:102A0C0003000000A90380000000400014005400E3
:102A1C0000000000E402440271023103A2028002B1
:102A2C009402000000000F04E2032505B803DB0349
:102A3C00C803B90300000000B40544022505510386
:102A4C000D0A00636D006431203D20006432203D8E
:102A5C0020006433203D20006434203D2000643588
:102A6C00203D20005061726B696E672046756C6C5E
:102A7C002020005061726B696E67206C6566742053
:102A8C0000536C6F74203120322033204672656500
:102A9C0000536C6F742031202620322046726565FD
:102AAC0000536C6F742031202620332046726565EC
:102ABC0000536C6F742032202620332046726565DB
:102ACC00005061726B696E672046756C6C2020201B
:102ADC0000536C6F74203120697320467265652039
:102AEC0000536C6F74203220697320467265652028
:102AFC0000536C6F74203320697320467265652017
:022B0C000000C7
:00000001FF
